:100000000C945D000C9485000C9485000C94850084
:100010000C9485000C9485000C9485000C9485004C
:100020000C9485000C9485000C9485000C94D300EE
:100030000C9485000C9485000C9485000C9485002C
:100040000C94C7020C9485000C9485000C948500D8
:100050000C9485000C9485000C9485000C9485000C
:100060000C9485000C94850000000008000201003B
:100070000003040700000000000000000102040863
:100080001020408001020408102001020408102002
:10009000040404040404040402020202020203032E
:1000A0000303030300000000250028002B000000CC
:1000B0000000240027002A00CF0011241FBECFEF2C
:1000C000D8E0DEBFCDBF11E0A0E0B1E0EAE6FAE0A3
:1000D00002C005900D92A630B107D9F721E0A6E045
:1000E000B1E001C01D92AC33B207E1F710E0CAEBFA
:1000F000D0E004C02297FE010E942005C83BD10732
:10010000C9F70E94A6040C9433050C94000069E022
:1001100070E08AE091E00C942902AF92BF92CF92F6
:10012000DF92EF92FF920F931F93809108010E943C
:10013000A9039093070180930601BC01882777FDEE
:100140008095982F1F921F921F9224EB2F93A12C22
:10015000B12C6501EE24EA9413E0F12E00E010E0EA
:1001600020E030E0A9010E945E04709307016093D3
:1001700006018AE091E00E9462020F900F900F90BA
:100180000F906FE070E080E090E01F910F91FF9082
:10019000EF90DF90CF90BF90AF900C9434038AE043
:1001A00091E00C948F011F920F920FB60F921124C1
:1001B0002F933F934F935F936F937F938F939F936F
:1001C000AF93BF93EF93FF9380910E0187FF05C01C
:1001D00010928500109284001AC020910E013327DE
:1001E00027FD309580910D0190E0281739077CF4A8
:1001F00080910E01992787FD9095FC01EE0FFF1F5E
:10020000E80FF91FE15FFE4F808186FD15C08091E8
:100210000E018F5F80930E0120910E01332727FD81
:10022000309580910D0190E028173907BCF480913A
:100230000E018C305CF112C080910E01992787FD70
:100240009095FC01EE0FFF1FE80FF91FE15FFE4FD5
:10025000808160E08F730E942804D9CF8091840050
:1002600090918500049680349C4918F480E49CE9C0
:1002700005C0809184009091850004969093890038
:10028000809388008FEF80930E0138C02091840006
:100290003091850080910E01992787FD9095FC0192
:1002A000EE0FFF1FE80FF91FE15FFE4F8181928182
:1002B000820F931F909389008093880080910E0194
:1002C000992787FD9095FC01EE0FFF1FE80FF91F9E
:1002D000E15FFE4F808186FF11C080910E0199275A
:1002E00087FD9095FC01EE0FFF1FE80FF91FE15FFE
:1002F000FE4F808161E08F730E942804FF91EF918F
:10030000BF91AF919F918F917F916F915F914F912D
:100310003F912F910F900FBE0F901F901895209135
:100320000D012C30A0F431E0320F30930D01FC01AF
:100330002083822F90E0FC01EE0FFF1FE80FF91FD2
:10034000E15FFE4F88EB9BE09283818308952FEF5E
:10035000FC0120830895DF92EF92FF920F931F9389
:10036000CF93DF93EC01D62E7A01890188818C30FE
:1003700008F066C061E08D2D0E94EF038881A82FF0
:10038000B0E0FD01EE0FFF1FEA0FFB1FE15FFE4F24
:100390002D2D2F739081907C922B908360E272E0E0
:1003A0006E197F0977FF02C06D5F7F4F7595679566
:1003B00075956795698340E659E0401B510B57FFDF
:1003C00002C04D5F5F4F55954795559547954A83B8
:1003D0006CE00E94C6049CE0899FB001112420E0DB
:1003E00030E0A901460F571FFA01EE0FFF1FE40F7F
:1003F000F51FE15FFE4F908196FD16C02F5F3F4FC6
:100400002C30310571F781110FC01092800082E00D
:10041000809381001092850010928400B19A80919F
:100420006F00826080936F00888190E0FC01EE0F86
:10043000FF1FE80FF91FE15FFE4F8081806480831A
:100440008881DF91CF911F910F91FF90EF90DF9006
:10045000089520E639E040E252E00C94AB01FC0143
:1004600080818C3070F5918128E830E0291B3109BA
:1004700097FD3395220F331F220F331F6217730727
:100480007CF0928128E532E0291B310997FD3395F4
:10049000220F331F220F331F621773070CF49B01C7
:1004A00022503109220F331F4FB7F89490E0FC011E
:1004B000EE0FFF1FE80FF91FE15FFE4F328321832C
:1004C0004FBF08954F925F926F927F92AF92BF920B
:1004D000CF92DF92EF92FF920F931F93CF93DF9310
:1004E000EC01603282E078070CF040C077FD06C076
:1004F000653B71052CF064EB70E002C060E070E0D9
:10050000898128E830E0281B310987FD3395220FC7
:10051000331F220F331F5901CC24B7FCC094DC2CAD
:10052000882777FD8095982F2A8148E552E0421B65
:10053000510927FD5395440F551F440F551F2A019C
:10054000662457FC6094762C7F926F925F924F9254
:1005500014EBE12EF12C00E010E020E030E0A901E6
:100560000E945E040F900F900F900F90CE01DF91CC
:10057000CF911F910F91FF90EF90DF90CF90BF90A0
:10058000AF907F906F905F904F900C942F021F92CE
:100590000F920FB60F9211242F933F938F939F9337
:1005A000AF93BF938091340190913501A0913601B2
:1005B000B09137013091330123E0230F2D3720F420
:1005C0000196A11DB11D05C026E8230F0296A11DAD
:1005D000B11D209333018093340190933501A09392
:1005E0003601B09337018091380190913901A09183
:1005F0003A01B0913B010196A11DB11D80933801D4
:1006000090933901A0933A01B0933B01BF91AF9110
:100610009F918F913F912F910F900FBE0F901F9040
:1006200018953FB7F8948091380190913901A091C5
:100630003A01B0913B0126B5A89B05C02F3F19F0A8
:100640000196A11DB11D3FBF6627782F892F9A2FD4
:10065000620F711D811D911D42E0660F771F881F7B
:10066000991F4A95D1F708958F929F92AF92BF92AA
:10067000CF92DF92EF92FF926B017C010E941103F7
:100680004B015C01C114D104E104F104F1F00E94BA
:10069000B5040E941103681979098A099B09683E0B
:1006A00073408105910570F321E0C21AD108E10879
:1006B000F10888EE880E83E0981EA11CB11CC114BD
:1006C000D104E104F10429F7DDCFFF90EF90DF9032
:1006D000CF90BF90AF909F908F900895789484B5FD
:1006E000826084BD84B5816084BD85B5826085BD2E
:1006F00085B5816085BDEEE6F0E080818160808314
:10070000E1E8F0E0108280818260808380818160F6
:100710008083E0E8F0E0808181608083E1EBF0E0BD
:10072000808184608083E0EBF0E080818160808361
:10073000EAE7F0E08081846080838081826080834A
:100740008081816080838081806880831092C10075
:1007500008958E3008F08E5087702091040190E447
:10076000299F90011124822B80937C0080917A0034
:10077000806480937A0080917A0086FDFCCF80911E
:1007800078002091790090E0922B0895833081F0D9
:1007900028F4813099F08230A1F008958730A9F0D3
:1007A0008830B9F08430D1F4809180008F7D03C00F
:1007B000809180008F7780938000089584B58F7733
:1007C00002C084B58F7D84BD08958091B0008F777D
:1007D00003C08091B0008F7D8093B0000895CF93C7
:1007E000DF9390E0FC01E458FF4F2491FC01E057B7
:1007F000FF4F8491882349F190E0880F991FFC01F5
:10080000E255FF4FA591B4918C559F4FFC01C591C6
:10081000D4919FB7611108C0F8948C9120958223E0
:100820008C93888182230AC0623051F4F8948C91B1
:10083000322F309583238C938881822B888304C048
:10084000F8948C91822B8C939FBFDF91CF91089568
:100850000F931F93CF93DF931F92CDB7DEB7282F4F
:1008600030E0F901E859FF4F8491F901E458FF4F56
:100870001491F901E057FF4F04910023C9F0882338
:1008800021F069830E94C6036981E02FF0E0EE0F3A
:10089000FF1FEC55FF4FA591B4919FB7F8948C9131
:1008A000611103C01095812301C0812B8C939FBFE0
:1008B0000F90DF91CF911F910F9108954F925F920A
:1008C0006F927F92AF92BF92CF92DF92EF92FF92A0
:1008D0000F931F93CF93DF93CDB7DEB729013A0172
:1008E000621B730B840B950B29893A894B895C89B0
:1008F0002A193B094C095D09298B3A8B4B8B5C8B80
:100900009B01AC0169897A898B899C890E94B60414
:10091000E418F50806091709A80197010E94D204F6
:100920002A0D3B1D4C1D5D1DCA01B901DF91CF9100
:100930001F910F91FF90EF90DF90CF90BF90AF90FD
:100940007F906F905F904F90089508950E946E037E
:100950000E94A5040E948700C0E0D0E00E948D00A4
:100960002097E1F30E940000F9CF0895DB018F93F7
:100970009F930E94F104BF91AF91A29F800D911DA2
:10098000A39F900DB29F900D11240895991B79E0BB
:1009900004C0991F961708F0961B881F7A95C9F70F
:1009A00080950895052E97FB1EF400940E94E9049B
:1009B00057FD07D00E94FC0407FC03D04EF40C94B2
:1009C000E90450954095309521953F4F4F4F5F4F2B
:1009D000089590958095709561957F4F8F4F9F4FAB
:1009E00008950E942405A59F900DB49F900DA49F8B
:1009F000800D911D11240895A1E21A2EAA1BBB1B84
:100A0000FD010DC0AA1FBB1FEE1FFF1FA217B307DA
:100A1000E407F50720F0A21BB30BE40BF50B661FF0
:100A2000771F881F991F1A9469F7609570958095B4
:100A300090959B01AC01BD01CF010895EE0FFF1F02
:100A40000590F491E02D0994A29FB001B39FC001DD
:100A5000A39F700D811D1124911DB29F700D811DEA
:0A0A60001124911D0895F894FFCFB2
:060A6A0001000000010084
:00000001FF
